:060000000A128A11EE2F26
:100D7E007E088A007F0882000A128A11BF260A1294
:100D8E008A118000840A04087D0603190034FF0AC4
:100D9E000319FE0AC32EFF34FF34C334DF34DF34AD
:100DAE00C034FF34FF34FF34FF34C034FF34FF341B
:100DBE00C034FF34FF34183418342434243442340D
:100DCE00423481348134FF34803480348034803432
:100DDE008034803480348316031386018801831295
:100DEE00031386018801F201F301FA0108307A0239
:100DFE00031C022F032F042F232F0130F0007A0A39
:100E0E000A2F0310F00DFF3E031D082F70088312EA
:100E1E00031386007A08383E840083130009880085
:100E2E000630F1003030F000F00B1B2FF10B1B2FB2
:100E3E0000000130FA07FD2E0130F2070318F30A05
:100E4E000030F3077308803AFF0080307F02031DE5
:100E5E00322FC9307202031C352F362FFC2EF401AF
:100E6E00F501FB0108307B02031C3E2F3F2F402F64
:100E7E005F2F0130F0007B0A462F0310F00DFF3E6E
:100E8E00031D442F70088312031386007B08303E27
:100E9E0084008313000988000630F1003030F00022
:100EAE00F00B572FF10B572F00000130FB07392F96
:100EBE000130F4070318F50A0030F5077508803A7B
:100ECE00FF0080307F02031D6E2FC9307402031C99
:100EDE00712F722F382FF601F701FC0108307C02BA
:100EEE00031C7A2F7B2F7C2F9B2F0130F0007C0A66
:100EFE00822F0310F00DFF3E031D802F700883120A
:100F0E00031386007C08283E8400831300098800A2
:100F1E000630F1003030F000F00B932FF10B932FD1
:100F2E0000000130FC07752F0130F6070318F70A91
:100F3E000030F7077708803AFF0080307F02031DEC
:100F4E00AA2FC9307602031CAD2FAE2F742FF801D5
:100F5E00F901FD0108307D02031CB62FB72FB82F03
:100F6E00D72F0130F0007D0ABE2F0310F00DFF3E8B
:100F7E00031DBC2F70088312031386007D08203ECC
:100F8E0084008313000988000630F1003030F00031
:100F9E00F00BCF2FF10BCF2F00000130FD07B12F3B
:100FAE000130F8070318F90A0030F9077908803A7A
:100FBE00FF0080307F02031DE62FC9307802031C2C
:100FCE00E92FEA2FB02FFA2E0A128A110028831366
:100FDE004030FD000630FE00D230FF00203084008D
:100FEE000A128A11C3260A128A1183010A128A1161
:020FFE00F22ED1
:04400E00F22FFF3F4F
:00000001FF
