:060000000A128A11CC2F48
:100F0A008134423424341834183424344234813439
:100F1A007E088A007F0882000A128A118D270A1227
:100F2A008A118000840A04087D0603190034FF0A26
:100F3A000319FE0A912F831603138601880183126F
:100F4A00031386018801F90108307902031CAE2FC8
:100F5A00AF2FB02FA82F0130F800790AB62F03104F
:100F6A00F80DFF3E031DB42F780883120313860081
:100F7A007908703E8400000988008530F800F80B73
:100F8A00C42F0130F907A92F0A128A1100280A1260
:100F9A008A1185270A128A11F0000A128A118627F5
:100FAA000A128A11F1000A128A1187270A128A1173
:100FBA00F2000A128A1188270A128A11F3000A1209
:100FCA008A1189270A128A11F4000A128A118A27B9
:100FDA000A128A11F5000A128A118B270A128A113B
:100FEA00F6000A128A118C270A128A11F700830165
:060FFA000A128A11A02F6B
:04400E00F22FFF3F4F
:00000001FF
